{"abi":[{"type":"constructor","inputs":[{"name":"_operator","type":"address","internalType":"address"}],"stateMutability":"nonpayable"},{"type":"receive","stateMutability":"payable"},{"type":"function","name":"BPS_SCALE","inputs":[],"outputs":[{"name":"","type":"uint256","internalType":"uint256"}],"stateMutability":"view"},{"type":"function","name":"FEE_BPS","inputs":[],"outputs":[{"name":"","type":"uint256","internalType":"uint256"}],"stateMutability":"view"},{"type":"function","name":"PRICE_DECIMALS","inputs":[],"outputs":[{"name":"","type":"uint256","internalType":"uint256"}],"stateMutability":"view"},{"type":"function","name":"PRICE_SCALE","inputs":[],"outputs":[{"name":"","type":"uint256","internalType":"uint256"}],"stateMutability":"view"},{"type":"function","name":"activeBet","inputs":[{"name":"","type":"address","internalType":"address"}],"outputs":[{"name":"","type":"uint256","internalType":"uint256"}],"stateMutability":"view"},{"type":"function","name":"bets","inputs":[{"name":"","type":"uint256","internalType":"uint256"}],"outputs":[{"name":"agent","type":"address","internalType":"address"},{"name":"roundId","type":"uint256","internalType":"uint256"},{"name":"direction","type":"uint8","internalType":"enum AgentCoaster.Direction"},{"name":"multiplier","type":"uint256","internalType":"uint256"},{"name":"wager","type":"uint256","internalType":"uint256"},{"name":"entryPrice","type":"uint256","internalType":"uint256"},{"name":"bustPrice","type":"uint256","internalType":"uint256"},{"name":"entryTick","type":"uint256","internalType":"uint256"},{"name":"active","type":"bool","internalType":"bool"}],"stateMutability":"view"},{"type":"function","name":"cashOut","inputs":[{"name":"betId","type":"uint256","internalType":"uint256"}],"outputs":[],"stateMutability":"nonpayable"},{"type":"function","name":"currentRound","inputs":[],"outputs":[{"name":"","type":"uint256","internalType":"uint256"}],"stateMutability":"view"},{"type":"function","name":"endRound","inputs":[{"name":"seed","type":"bytes32","internalType":"bytes32"}],"outputs":[],"stateMutability":"nonpayable"},{"type":"function","name":"fund","inputs":[],"outputs":[],"stateMutability":"payable"},{"type":"function","name":"getContractBalance","inputs":[],"outputs":[{"name":"","type":"uint256","internalType":"uint256"}],"stateMutability":"view"},{"type":"function","name":"getRoundBetIds","inputs":[{"name":"roundId","type":"uint256","internalType":"uint256"}],"outputs":[{"name":"","type":"uint256[]","internalType":"uint256[]"}],"stateMutability":"view"},{"type":"function","name":"leaderboard","inputs":[{"name":"","type":"address","internalType":"address"}],"outputs":[{"name":"totalPnL","type":"int256","internalType":"int256"},{"name":"wins","type":"uint256","internalType":"uint256"},{"name":"losses","type":"uint256","internalType":"uint256"}],"stateMutability":"view"},{"type":"function","name":"liquidate","inputs":[{"name":"betId","type":"uint256","internalType":"uint256"},{"name":"currentPrice","type":"uint256","internalType":"uint256"}],"outputs":[],"stateMutability":"nonpayable"},{"type":"function","name":"nextBetId","inputs":[],"outputs":[{"name":"","type":"uint256","internalType":"uint256"}],"stateMutability":"view"},{"type":"function","name":"operator","inputs":[],"outputs":[{"name":"","type":"address","internalType":"address"}],"stateMutability":"view"},{"type":"function","name":"owner","inputs":[],"outputs":[{"name":"","type":"address","internalType":"address"}],"stateMutability":"view"},{"type":"function","name":"placeBet","inputs":[{"name":"direction","type":"uint8","internalType":"uint8"},{"name":"multiplier","type":"uint256","internalType":"uint256"}],"outputs":[],"stateMutability":"payable"},{"type":"function","name":"roundBetIds","inputs":[{"name":"","type":"uint256","internalType":"uint256"},{"name":"","type":"uint256","internalType":"uint256"}],"outputs":[{"name":"","type":"uint256","internalType":"uint256"}],"stateMutability":"view"},{"type":"function","name":"rounds","inputs":[{"name":"","type":"uint256","internalType":"uint256"}],"outputs":[{"name":"seedHash","type":"bytes32","internalType":"bytes32"},{"name":"seed","type":"bytes32","internalType":"bytes32"},{"name":"startTime","type":"uint256","internalType":"uint256"},{"name":"state","type":"uint8","internalType":"enum AgentCoaster.RoundState"},{"name":"finalPrice","type":"uint256","internalType":"uint256"},{"name":"currentTick","type":"uint256","internalType":"uint256"},{"name":"currentPrice","type":"uint256","internalType":"uint256"}],"stateMutability":"view"},{"type":"function","name":"setOperator","inputs":[{"name":"_operator","type":"address","internalType":"address"}],"outputs":[],"stateMutability":"nonpayable"},{"type":"function","name":"startRound","inputs":[{"name":"seedHash","type":"bytes32","internalType":"bytes32"}],"outputs":[],"stateMutability":"nonpayable"},{"type":"function","name":"submitTickPrice","inputs":[{"name":"tick","type":"uint256","internalType":"uint256"},{"name":"price","type":"uint256","internalType":"uint256"}],"outputs":[],"stateMutability":"nonpayable"},{"type":"function","name":"tickPrices","inputs":[{"name":"","type":"uint256","internalType":"uint256"},{"name":"","type":"uint256","internalType":"uint256"}],"outputs":[{"name":"","type":"uint256","internalType":"uint256"}],"stateMutability":"view"},{"type":"function","name":"withdraw","inputs":[{"name":"amount","type":"uint256","internalType":"uint256"}],"outputs":[],"stateMutability":"nonpayable"},{"type":"event","name":"BetClosed","inputs":[{"name":"betId","type":"uint256","indexed":true,"internalType":"uint256"},{"name":"pnl","type":"int256","indexed":false,"internalType":"int256"},{"name":"exitPrice","type":"uint256","indexed":false,"internalType":"uint256"}],"anonymous":false},{"type":"event","name":"BetLiquidated","inputs":[{"name":"betId","type":"uint256","indexed":true,"internalType":"uint256"},{"name":"bustPrice","type":"uint256","indexed":false,"internalType":"uint256"}],"anonymous":false},{"type":"event","name":"BetPlaced","inputs":[{"name":"betId","type":"uint256","indexed":true,"internalType":"uint256"},{"name":"agent","type":"address","indexed":true,"internalType":"address"},{"name":"direction","type":"uint8","indexed":false,"internalType":"enum AgentCoaster.Direction"},{"name":"multiplier","type":"uint256","indexed":false,"internalType":"uint256"},{"name":"wager","type":"uint256","indexed":false,"internalType":"uint256"},{"name":"entryPrice","type":"uint256","indexed":false,"internalType":"uint256"},{"name":"bustPrice","type":"uint256","indexed":false,"internalType":"uint256"}],"anonymous":false},{"type":"event","name":"Funded","inputs":[{"name":"funder","type":"address","indexed":true,"internalType":"address"},{"name":"amount","type":"uint256","indexed":false,"internalType":"uint256"}],"anonymous":false},{"type":"event","name":"RoundEnded","inputs":[{"name":"roundId","type":"uint256","indexed":true,"internalType":"uint256"},{"name":"seed","type":"bytes32","indexed":false,"internalType":"bytes32"},{"name":"finalPrice","type":"uint256","indexed":false,"internalType":"uint256"}],"anonymous":false},{"type":"event","name":"RoundStarted","inputs":[{"name":"roundId","type":"uint256","indexed":true,"internalType":"uint256"},{"name":"seedHash","type":"bytes32","indexed":false,"internalType":"bytes32"},{"name":"startTime","type":"uint256","indexed":false,"internalType":"uint256"}],"anonymous":false},{"type":"event","name":"TickPriceUpdated","inputs":[{"name":"roundId","type":"uint256","indexed":true,"internalType":"uint256"},{"name":"tick","type":"uint256","indexed":false,"internalType":"uint256"},{"name":"price","type":"uint256","indexed":false,"internalType":"uint256"}],"anonymous":false},{"type":"event","name":"Withdrawn","inputs":[{"name":"owner","type":"address","indexed":true,"internalType":"address"},{"name":"amount","type":"uint256","indexed":false,"internalType":"uint256"}],"anonymous":false}],"bytecode":{"object":"0x608060405234801561000f575f5ffd5b5060405161356238038061356283398181016040528101906100319190610114565b335f5f6101000a81548173ffffffffffffffffffffffffffffffffffffffff021916908373ffffffffffffffffffffffffffffffffffffffff1602179055508060015f6101000a81548173ffffffffffffffffffffffffffffffffffffffff021916908373ffffffffffffffffffffffffffffffffffffffff1602179055505061013f565b5f5ffd5b5f73ffffffffffffffffffffffffffffffffffffffff82169050919050565b5f6100e3826100ba565b9050919050565b6100f3816100d9565b81146100fd575f5ffd5b50565b5f8151905061010e816100ea565b92915050565b5f60208284031215610129576101286100b6565b5b5f61013684828501610100565b91505092915050565b6134168061014c5f395ff3fe608060405260043610610169575f3560e01c8063b3ab15fb116100d0578063d1d33d2011610089578063eacfe1e211610063578063eacfe1e214610528578063f1a640f814610564578063f70e144b1461058e578063f8b9f4f0146105b657610170565b8063d1d33d20146104a6578063d296d1f1146104e4578063dcb3b30e1461050c57610170565b8063b3ab15fb146103bc578063b60d4288146103e4578063b7c7a5fe146103ee578063bf333f2c14610416578063c33f59d314610440578063cf2a8eca1461046a57610170565b80636f9fb98a116101225780636f9fb98a146102965780638a19c8bc146102c05780638c65c81f146102ea5780638da5cb5b1461032c5780639aca2792146103565780639aee6ac71461038057610170565b80631c7ff1ba1461017457806322af00fa146101b05780632e1a7d4d146101f4578063374048851461021c578063570ca735146102445780635c7b79f51461026e57610170565b3661017057005b5f5ffd5b34801561017f575f5ffd5b5061019a60048036038101906101959190612354565b6105e0565b6040516101a79190612397565b60405180910390f35b3480156101bb575f5ffd5b506101d660048036038101906101d191906123da565b6105f5565b6040516101eb999897969594939291906124a1565b60405180910390f35b3480156101ff575f5ffd5b5061021a600480360381019061021591906123da565b610676565b005b348015610227575f5ffd5b50610242600480360381019061023d919061255f565b610881565b005b34801561024f575f5ffd5b50610258610ac3565b604051610265919061258a565b60405180910390f35b348015610279575f5ffd5b50610294600480360381019061028f91906123da565b610ae8565b005b3480156102a1575f5ffd5b506102aa610ee1565b6040516102b79190612397565b60405180910390f35b3480156102cb575f5ffd5b506102d4610ee8565b6040516102e19190612397565b60405180910390f35b3480156102f5575f5ffd5b50610310600480360381019061030b91906123da565b610eee565b60405161032397969594939291906125f8565b60405180910390f35b348015610337575f5ffd5b50610340610f38565b60405161034d919061258a565b60405180910390f35b348015610361575f5ffd5b5061036a610f5c565b6040516103779190612397565b60405180910390f35b34801561038b575f5ffd5b506103a660048036038101906103a19190612665565b610f62565b6040516103b39190612397565b60405180910390f35b3480156103c7575f5ffd5b506103e260048036038101906103dd9190612354565b610f82565b005b6103ec611053565b005b3480156103f9575f5ffd5b50610414600480360381019061040f9190612665565b6110e5565b005b348015610421575f5ffd5b5061042a6112ca565b6040516104379190612397565b60405180910390f35b34801561044b575f5ffd5b506104546112d0565b6040516104619190612397565b60405180910390f35b348015610475575f5ffd5b50610490600480360381019061048b9190612665565b6112d5565b60405161049d9190612397565b60405180910390f35b3480156104b1575f5ffd5b506104cc60048036038101906104c79190612354565b611300565b6040516104db939291906126bb565b60405180910390f35b3480156104ef575f5ffd5b5061050a60048036038101906105059190612665565b611326565b005b61052660048036038101906105219190612726565b61169a565b005b348015610533575f5ffd5b5061054e600480360381019061054991906123da565b611bb6565b60405161055b919061281b565b60405180910390f35b34801561056f575f5ffd5b50610578611c1d565b6040516105859190612397565b60405180910390f35b348015610599575f5ffd5b506105b460048036038101906105af919061255f565b611c22565b005b3480156105c1575f5ffd5b506105ca6121e1565b6040516105d79190612397565b60405180910390f35b6008602052805f5260405f205f915090505481565b6005602052805f5260405f205f91509050805f015f9054906101000a900473ffffffffffffffffffffffffffffffffffffffff1690806001015490806002015f9054906101000a900460ff1690806003015490806004015490806005015490806006015490806007015490806008015f9054906101000a900460ff16905089565b5f5f9054906101000a900473ffffffffffffffffffffffffffffffffffffffff1673ffffffffffffffffffffffffffffffffffffffff163373ffffffffffffffffffffffffffffffffffffffff1614610704576040517f08c379a00000000000000000000000000000000000000000000000000000000081526004016106fb90612895565b60405180910390fd5b47811115610747576040517f08c379a000000000000000000000000000000000000000000000000000000000815260040161073e906128fd565b60405180910390fd5b5f5f5f9054906101000a900473ffffffffffffffffffffffffffffffffffffffff1673ffffffffffffffffffffffffffffffffffffffff168260405161078c90612948565b5f6040518083038185875af1925050503d805f81146107c6576040519150601f19603f3d011682016040523d82523d5f602084013e6107cb565b606091505b505090508061080f576040517f08c379a0000000000000000000000000000000000000000000000000000000008152600401610806906129a6565b60405180910390fd5b5f5f9054906101000a900473ffffffffffffffffffffffffffffffffffffffff1673ffffffffffffffffffffffffffffffffffffffff167f7084f5476618d8e60b11ef0d7d3f06914655adb8793e28ff7f018d4c76d505d5836040516108759190612397565b60405180910390a25050565b60015f9054906101000a900473ffffffffffffffffffffffffffffffffffffffff1673ffffffffffffffffffffffffffffffffffffffff163373ffffffffffffffffffffffffffffffffffffffff1614610910576040517f08c379a000000000000000000000000000000000000000000000000000000000815260040161090790612a0e565b60405180910390fd5b5f60025411156109a35760028081111561092d5761092c612414565b5b60045f60025481526020019081526020015f206003015f9054906101000a900460ff16600281111561096257610961612414565b5b146109a2576040517f08c379a000000000000000000000000000000000000000000000000000000000815260040161099990612a76565b60405180910390fd5b5b60025f8154809291906109b590612ac1565b91905055506040518060e001604052808281526020015f5f1b8152602001428152602001600160028111156109ed576109ec612414565b5b81526020015f81526020015f8152602001620186a081525060045f60025481526020019081526020015f205f820151815f015560208201518160010155604082015181600201556060820151816003015f6101000a81548160ff02191690836002811115610a5e57610a5d612414565b5b02179055506080820151816004015560a0820151816005015560c082015181600601559050506002547f4011864dacdca122d3079c2892c7266e327a3cc5e98fae433169dd339aaedd808242604051610ab8929190612b08565b60405180910390a250565b60015f9054906101000a900473ffffffffffffffffffffffffffffffffffffffff1681565b5f60055f8381526020019081526020015f2090503373ffffffffffffffffffffffffffffffffffffffff16815f015f9054906101000a900473ffffffffffffffffffffffffffffffffffffffff1673ffffffffffffffffffffffffffffffffffffffff1614610b8c576040517f08c379a0000000000000000000000000000000000000000000000000000000008152600401610b8390612b79565b60405180910390fd5b806008015f9054906101000a900460ff16610bdc576040517f08c379a0000000000000000000000000000000000000000000000000000000008152600401610bd390612be1565b60405180910390fd5b5f60045f836001015481526020019081526020015f20905060016002811115610c0857610c07612414565b5b816003015f9054906101000a900460ff166002811115610c2b57610c2a612414565b5b14610c6b576040517f08c379a0000000000000000000000000000000000000000000000000000000008152600401610c6290612c49565b60405180910390fd5b5f816006015490505f5f610c7f85846121e7565b915091505f856008015f6101000a81548160ff0219169083151502179055505f60085f3373ffffffffffffffffffffffffffffffffffffffff1673ffffffffffffffffffffffffffffffffffffffff1681526020019081526020015f20819055505f811315610d425760065f3373ffffffffffffffffffffffffffffffffffffffff1673ffffffffffffffffffffffffffffffffffffffff1681526020019081526020015f206001015f815480929190610d3890612ac1565b9190505550610d98565b60065f3373ffffffffffffffffffffffffffffffffffffffff1673ffffffffffffffffffffffffffffffffffffffff1681526020019081526020015f206002015f815480929190610d9290612ac1565b91905055505b8060065f3373ffffffffffffffffffffffffffffffffffffffff1673ffffffffffffffffffffffffffffffffffffffff1681526020019081526020015f205f015f828254610de69190612c67565b925050819055505f821115610e9f575f3373ffffffffffffffffffffffffffffffffffffffff1683604051610e1a90612948565b5f6040518083038185875af1925050503d805f8114610e54576040519150601f19603f3d011682016040523d82523d5f602084013e610e59565b606091505b5050905080610e9d576040517f08c379a0000000000000000000000000000000000000000000000000000000008152600401610e94906129a6565b60405180910390fd5b505b857f64447c214935ff1e5857e5ddf78b61c786b93428307d127db20442e4ba8cab008285604051610ed1929190612ca8565b60405180910390a2505050505050565b5f47905090565b60025481565b6004602052805f5260405f205f91509050805f015490806001015490806002015490806003015f9054906101000a900460ff16908060040154908060050154908060060154905087565b5f5f9054906101000a900473ffffffffffffffffffffffffffffffffffffffff1681565b60035481565b6009602052815f5260405f20602052805f5260405f205f91509150505481565b5f5f9054906101000a900473ffffffffffffffffffffffffffffffffffffffff1673ffffffffffffffffffffffffffffffffffffffff163373ffffffffffffffffffffffffffffffffffffffff1614611010576040517f08c379a000000000000000000000000000000000000000000000000000000000815260040161100790612895565b60405180910390fd5b8060015f6101000a81548173ffffffffffffffffffffffffffffffffffffffff021916908373ffffffffffffffffffffffffffffffffffffffff16021790555050565b5f3411611095576040517f08c379a000000000000000000000000000000000000000000000000000000000815260040161108c90612d19565b60405180910390fd5b3373ffffffffffffffffffffffffffffffffffffffff167f5af8184bef8e4b45eb9f6ed7734d04da38ced226495548f46e0c8ff8d7d9a524346040516110db9190612397565b60405180910390a2565b60015f9054906101000a900473ffffffffffffffffffffffffffffffffffffffff1673ffffffffffffffffffffffffffffffffffffffff163373ffffffffffffffffffffffffffffffffffffffff1614611174576040517f08c379a000000000000000000000000000000000000000000000000000000000815260040161116b90612a0e565b60405180910390fd5b5f60045f60025481526020019081526020015f2090506001600281111561119e5761119d612414565b5b816003015f9054906101000a900460ff1660028111156111c1576111c0612414565b5b14611201576040517f08c379a00000000000000000000000000000000000000000000000000000000081526004016111f890612c49565b60405180910390fd5b5f83118015611211575060788311155b611250576040517f08c379a000000000000000000000000000000000000000000000000000000000815260040161124790612d81565b60405180910390fd5b8281600501819055508181600601819055508160095f60025481526020019081526020015f205f8581526020019081526020015f20819055506002547f726d5d3c0545f950e6057da0165a04f8ef21a619ca4b8a0627a8a7c4dd6023b184846040516112bd929190612d9f565b60405180910390a2505050565b6101f481565b606481565b6007602052815f5260405f2081815481106112ee575f80fd5b905f5260205f20015f91509150505481565b6006602052805f5260405f205f91509050805f0154908060010154908060020154905083565b60015f9054906101000a900473ffffffffffffffffffffffffffffffffffffffff1673ffffffffffffffffffffffffffffffffffffffff163373ffffffffffffffffffffffffffffffffffffffff16146113b5576040517f08c379a00000000000000000000000000000000000000000000000000000000081526004016113ac90612a0e565b60405180910390fd5b5f60055f8481526020019081526020015f209050806008015f9054906101000a900460ff16611419576040517f08c379a000000000000000000000000000000000000000000000000000000000815260040161141090612be1565b60405180910390fd5b5f600181111561142c5761142b612414565b5b816002015f9054906101000a900460ff16600181111561144f5761144e612414565b5b036114a057806006015482111561149b576040517f08c379a000000000000000000000000000000000000000000000000000000000815260040161149290612e10565b60405180910390fd5b6114e8565b80600601548210156114e7576040517f08c379a00000000000000000000000000000000000000000000000000000000081526004016114de90612e78565b60405180910390fd5b5b5f816008015f6101000a81548160ff0219169083151502179055505f60085f835f015f9054906101000a900473ffffffffffffffffffffffffffffffffffffffff1673ffffffffffffffffffffffffffffffffffffffff1673ffffffffffffffffffffffffffffffffffffffff1681526020019081526020015f208190555060065f825f015f9054906101000a900473ffffffffffffffffffffffffffffffffffffffff1673ffffffffffffffffffffffffffffffffffffffff1673ffffffffffffffffffffffffffffffffffffffff1681526020019081526020015f206002015f8154809291906115d990612ac1565b9190505550806004015460065f835f015f9054906101000a900473ffffffffffffffffffffffffffffffffffffffff1673ffffffffffffffffffffffffffffffffffffffff1673ffffffffffffffffffffffffffffffffffffffff1681526020019081526020015f205f015f8282546116529190612e96565b92505081905550827fe1ef29c3aef12dc22bf654edec63202e26ddba564dbc92e90678fb9ca5704008826006015460405161168d9190612397565b60405180910390a2505050565b60018260ff1611156116e1576040517f08c379a00000000000000000000000000000000000000000000000000000000081526004016116d890612f20565b60405180910390fd5b600181101580156116f3575060648111155b611732576040517f08c379a000000000000000000000000000000000000000000000000000000000815260040161172990612f88565b60405180910390fd5b5f3411611774576040517f08c379a000000000000000000000000000000000000000000000000000000000815260040161176b90612ff0565b60405180910390fd5b5f60045f60025481526020019081526020015f2090506001600281111561179e5761179d612414565b5b816003015f9054906101000a900460ff1660028111156117c1576117c0612414565b5b14611801576040517f08c379a00000000000000000000000000000000000000000000000000000000081526004016117f890612c49565b60405180910390fd5b5f60085f3373ffffffffffffffffffffffffffffffffffffffff1673ffffffffffffffffffffffffffffffffffffffff1681526020019081526020015f205414611880576040517f08c379a000000000000000000000000000000000000000000000000000000000815260040161187790613058565b60405180910390fd5b5f816006015490505f81116118ca576040517f08c379a00000000000000000000000000000000000000000000000000000000081526004016118c1906130c0565b60405180910390fd5b5f5f60018111156118de576118dd612414565b5b8560ff1660018111156118f4576118f3612414565b5b600181111561190657611905612414565b5b03611929578382611917919061310b565b82611922919061313b565b9050611943565b8382611935919061310b565b82611940919061316e565b90505b60035f81548092919061195590612ac1565b91905055505f60035490506040518061012001604052803373ffffffffffffffffffffffffffffffffffffffff16815260200160025481526020018760ff1660018111156119a6576119a5612414565b5b60018111156119b8576119b7612414565b5b8152602001868152602001348152602001848152602001838152602001856005015481526020016001151581525060055f8381526020019081526020015f205f820151815f015f6101000a81548173ffffffffffffffffffffffffffffffffffffffff021916908373ffffffffffffffffffffffffffffffffffffffff160217905550602082015181600101556040820151816002015f6101000a81548160ff02191690836001811115611a6f57611a6e612414565b5b0217905550606082015181600301556080820151816004015560a0820151816005015560c0820151816006015560e08201518160070155610100820151816008015f6101000a81548160ff02191690831515021790555090505060075f60025481526020019081526020015f2081908060018154018082558091505060019003905f5260205f20015f90919091909150558060085f3373ffffffffffffffffffffffffffffffffffffffff1673ffffffffffffffffffffffffffffffffffffffff1681526020019081526020015f20819055503373ffffffffffffffffffffffffffffffffffffffff16817fc0d2fac75ac5ccc46e49d332200422420e5a1513e8ef1fd893a4f5dbd46921268860ff166001811115611b9157611b90612414565b5b88348888604051611ba69594939291906131a1565b60405180910390a3505050505050565b606060075f8381526020019081526020015f20805480602002602001604051908101604052809291908181526020018280548015611c1157602002820191905f5260205f20905b815481526020019060010190808311611bfd575b50505050509050919050565b600281565b60015f9054906101000a900473ffffffffffffffffffffffffffffffffffffffff1673ffffffffffffffffffffffffffffffffffffffff163373ffffffffffffffffffffffffffffffffffffffff1614611cb1576040517f08c379a0000000000000000000000000000000000000000000000000000000008152600401611ca890612a0e565b60405180910390fd5b5f60045f60025481526020019081526020015f20905060016002811115611cdb57611cda612414565b5b816003015f9054906101000a900460ff166002811115611cfe57611cfd612414565b5b14611d3e576040517f08c379a0000000000000000000000000000000000000000000000000000000008152600401611d3590612c49565b60405180910390fd5b805f015482604051602001611d539190613212565b6040516020818303038152906040528051906020012014611da9576040517f08c379a0000000000000000000000000000000000000000000000000000000008152600401611da090613276565b60405180910390fd5b8181600101819055506002816003015f6101000a81548160ff02191690836002811115611dd957611dd8612414565b5b0217905550806006015481600401819055505f60075f60025481526020019081526020015f2090505f5f90505b818054905081101561219b575f60055f848481548110611e2957611e28613294565b5b905f5260205f20015481526020019081526020015f209050806008015f9054906101000a900460ff161561218d575f5f611e678387600401546121e7565b915091505f836008015f6101000a81548160ff0219169083151502179055505f60085f855f015f9054906101000a900473ffffffffffffffffffffffffffffffffffffffff1673ffffffffffffffffffffffffffffffffffffffff1673ffffffffffffffffffffffffffffffffffffffff1681526020019081526020015f20819055505f811315611f6e5760065f845f015f9054906101000a900473ffffffffffffffffffffffffffffffffffffffff1673ffffffffffffffffffffffffffffffffffffffff1673ffffffffffffffffffffffffffffffffffffffff1681526020019081526020015f206001015f815480929190611f6490612ac1565b9190505550611fe6565b60065f845f015f9054906101000a900473ffffffffffffffffffffffffffffffffffffffff1673ffffffffffffffffffffffffffffffffffffffff1673ffffffffffffffffffffffffffffffffffffffff1681526020019081526020015f206002015f815480929190611fe090612ac1565b91905055505b8060065f855f015f9054906101000a900473ffffffffffffffffffffffffffffffffffffffff1673ffffffffffffffffffffffffffffffffffffffff1673ffffffffffffffffffffffffffffffffffffffff1681526020019081526020015f205f015f8282546120569190612c67565b925050819055505f821115612131575f835f015f9054906101000a900473ffffffffffffffffffffffffffffffffffffffff1673ffffffffffffffffffffffffffffffffffffffff16836040516120ac90612948565b5f6040518083038185875af1925050503d805f81146120e6576040519150601f19603f3d011682016040523d82523d5f602084013e6120eb565b606091505b505090508061212f576040517f08c379a0000000000000000000000000000000000000000000000000000000008152600401612126906129a6565b60405180910390fd5b505b84848154811061214457612143613294565b5b905f5260205f2001547f64447c214935ff1e5857e5ddf78b61c786b93428307d127db20442e4ba8cab00828860040154604051612182929190612ca8565b60405180910390a250505b508080600101915050611e06565b506002547fe075898ecee391007e965038e14ac75b44dcc777d0f41c986bd0e71c99bd35dd8484600401546040516121d4929190612b08565b60405180910390a2505050565b61271081565b5f5f5f5f60018111156121fd576121fc612414565b5b856002015f9054906101000a900460ff1660018111156122205761221f612414565b5b0361223c578460050154846122359190612e96565b905061224f565b83856005015461224c9190612e96565b90505b8460050154818660030154876004015461226991906132c1565b61227391906132c1565b61227d9190613337565b91505f8213156122c8575f6127106101f484612299919061339f565b6122a3919061310b565b9050808387600401546122b6919061316e565b6122c0919061313b565b9350506122ee565b5f8286600401546122d99190612c67565b90505f81136122e8575f6122ea565b805b9350505b509250929050565b5f5ffd5b5f73ffffffffffffffffffffffffffffffffffffffff82169050919050565b5f612323826122fa565b9050919050565b61233381612319565b811461233d575f5ffd5b50565b5f8135905061234e8161232a565b92915050565b5f60208284031215612369576123686122f6565b5b5f61237684828501612340565b91505092915050565b5f819050919050565b6123918161237f565b82525050565b5f6020820190506123aa5f830184612388565b92915050565b6123b98161237f565b81146123c3575f5ffd5b50565b5f813590506123d4816123b0565b92915050565b5f602082840312156123ef576123ee6122f6565b5b5f6123fc848285016123c6565b91505092915050565b61240e81612319565b82525050565b7f4e487b71000000000000000000000000000000000000000000000000000000005f52602160045260245ffd5b6002811061245257612451612414565b5b50565b5f81905061246282612441565b919050565b5f61247182612455565b9050919050565b61248181612467565b82525050565b5f8115159050919050565b61249b81612487565b82525050565b5f610120820190506124b55f83018c612405565b6124c2602083018b612388565b6124cf604083018a612478565b6124dc6060830189612388565b6124e96080830188612388565b6124f660a0830187612388565b61250360c0830186612388565b61251060e0830185612388565b61251e610100830184612492565b9a9950505050505050505050565b5f819050919050565b61253e8161252c565b8114612548575f5ffd5b50565b5f8135905061255981612535565b92915050565b5f60208284031215612574576125736122f6565b5b5f6125818482850161254b565b91505092915050565b5f60208201905061259d5f830184612405565b92915050565b6125ac8161252c565b82525050565b600381106125c3576125c2612414565b5b50565b5f8190506125d3826125b2565b919050565b5f6125e2826125c6565b9050919050565b6125f2816125d8565b82525050565b5f60e08201905061260b5f83018a6125a3565b61261860208301896125a3565b6126256040830188612388565b61263260608301876125e9565b61263f6080830186612388565b61264c60a0830185612388565b61265960c0830184612388565b98975050505050505050565b5f5f6040838503121561267b5761267a6122f6565b5b5f612688858286016123c6565b9250506020612699858286016123c6565b9150509250929050565b5f819050919050565b6126b5816126a3565b82525050565b5f6060820190506126ce5f8301866126ac565b6126db6020830185612388565b6126e86040830184612388565b949350505050565b5f60ff82169050919050565b612705816126f0565b811461270f575f5ffd5b50565b5f81359050612720816126fc565b92915050565b5f5f6040838503121561273c5761273b6122f6565b5b5f61274985828601612712565b925050602061275a858286016123c6565b9150509250929050565b5f81519050919050565b5f82825260208201905092915050565b5f819050602082019050919050565b6127968161237f565b82525050565b5f6127a7838361278d565b60208301905092915050565b5f602082019050919050565b5f6127c982612764565b6127d3818561276e565b93506127de8361277e565b805f5b8381101561280e5781516127f5888261279c565b9750612800836127b3565b9250506001810190506127e1565b5085935050505092915050565b5f6020820190508181035f83015261283381846127bf565b905092915050565b5f82825260208201905092915050565b7f4e6f74206f776e657200000000000000000000000000000000000000000000005f82015250565b5f61287f60098361283b565b915061288a8261284b565b602082019050919050565b5f6020820190508181035f8301526128ac81612873565b9050919050565b7f496e73756666696369656e742062616c616e63650000000000000000000000005f82015250565b5f6128e760148361283b565b91506128f2826128b3565b602082019050919050565b5f6020820190508181035f830152612914816128db565b9050919050565b5f81905092915050565b50565b5f6129335f8361291b565b915061293e82612925565b5f82019050919050565b5f61295282612928565b9150819050919050565b7f5472616e73666572206661696c656400000000000000000000000000000000005f82015250565b5f612990600f8361283b565b915061299b8261295c565b602082019050919050565b5f6020820190508181035f8301526129bd81612984565b9050919050565b7f4e6f74206f70657261746f7200000000000000000000000000000000000000005f82015250565b5f6129f8600c8361283b565b9150612a03826129c4565b602082019050919050565b5f6020820190508181035f830152612a25816129ec565b9050919050565b7f50726576696f757320726f756e64206e6f7420736574746c65640000000000005f82015250565b5f612a60601a8361283b565b9150612a6b82612a2c565b602082019050919050565b5f6020820190508181035f830152612a8d81612a54565b9050919050565b7f4e487b71000000000000000000000000000000000000000000000000000000005f52601160045260245ffd5b5f612acb8261237f565b91507fffffffffffffffffffffffffffffffffffffffffffffffffffffffffffffffff8203612afd57612afc612a94565b5b600182019050919050565b5f604082019050612b1b5f8301856125a3565b612b286020830184612388565b9392505050565b7f4e6f7420796f75722062657400000000000000000000000000000000000000005f82015250565b5f612b63600c8361283b565b9150612b6e82612b2f565b602082019050919050565b5f6020820190508181035f830152612b9081612b57565b9050919050565b7f426574206e6f74206163746976650000000000000000000000000000000000005f82015250565b5f612bcb600e8361283b565b9150612bd682612b97565b602082019050919050565b5f6020820190508181035f830152612bf881612bbf565b9050919050565b7f526f756e64206e6f7420616374697665000000000000000000000000000000005f82015250565b5f612c3360108361283b565b9150612c3e82612bff565b602082019050919050565b5f6020820190508181035f830152612c6081612c27565b9050919050565b5f612c71826126a3565b9150612c7c836126a3565b92508282019050828112155f8312168382125f841215161715612ca257612ca1612a94565b5b92915050565b5f604082019050612cbb5f8301856126ac565b612cc86020830184612388565b9392505050565b7f4d7573742073656e642076616c756500000000000000000000000000000000005f82015250565b5f612d03600f8361283b565b9150612d0e82612ccf565b602082019050919050565b5f6020820190508181035f830152612d3081612cf7565b9050919050565b7f496e76616c6964207469636b00000000000000000000000000000000000000005f82015250565b5f612d6b600c8361283b565b9150612d7682612d37565b602082019050919050565b5f6020820190508181035f830152612d9881612d5f565b9050919050565b5f604082019050612db25f830185612388565b612dbf6020830184612388565b9392505050565b7f4e6f7420627573746564202855502900000000000000000000000000000000005f82015250565b5f612dfa600f8361283b565b9150612e0582612dc6565b602082019050919050565b5f6020820190508181035f830152612e2781612dee565b9050919050565b7f4e6f74206275737465642028444f574e290000000000000000000000000000005f82015250565b5f612e6260118361283b565b9150612e6d82612e2e565b602082019050919050565b5f6020820190508181035f830152612e8f81612e56565b9050919050565b5f612ea0826126a3565b9150612eab836126a3565b925082820390508181125f8412168282135f851215161715612ed057612ecf612a94565b5b92915050565b7f496e76616c696420646972656374696f6e0000000000000000000000000000005f82015250565b5f612f0a60118361283b565b9150612f1582612ed6565b602082019050919050565b5f6020820190508181035f830152612f3781612efe565b9050919050565b7f4d756c7469706c696572206d75737420626520312d31303000000000000000005f82015250565b5f612f7260188361283b565b9150612f7d82612f3e565b602082019050919050565b5f6020820190508181035f830152612f9f81612f66565b9050919050565b7f57616765722072657175697265640000000000000000000000000000000000005f82015250565b5f612fda600e8361283b565b9150612fe582612fa6565b602082019050919050565b5f6020820190508181035f83015261300781612fce565b9050919050565b7f416c7265616479206861766520616374697665206265740000000000000000005f82015250565b5f61304260178361283b565b915061304d8261300e565b602082019050919050565b5f6020820190508181035f83015261306f81613036565b9050919050565b7f4e6f20707269636520617661696c61626c6500000000000000000000000000005f82015250565b5f6130aa60128361283b565b91506130b582613076565b602082019050919050565b5f6020820190508181035f8301526130d78161309e565b9050919050565b7f4e487b71000000000000000000000000000000000000000000000000000000005f52601260045260245ffd5b5f6131158261237f565b91506131208361237f565b9250826131305761312f6130de565b5b828204905092915050565b5f6131458261237f565b91506131508361237f565b925082820390508181111561316857613167612a94565b5b92915050565b5f6131788261237f565b91506131838361237f565b925082820190508082111561319b5761319a612a94565b5b92915050565b5f60a0820190506131b45f830188612478565b6131c16020830187612388565b6131ce6040830186612388565b6131db6060830185612388565b6131e86080830184612388565b9695505050505050565b5f819050919050565b61320c6132078261252c565b6131f2565b82525050565b5f61321d82846131fb565b60208201915081905092915050565b7f496e76616c6964207365656400000000000000000000000000000000000000005f82015250565b5f613260600c8361283b565b915061326b8261322c565b602082019050919050565b5f6020820190508181035f83015261328d81613254565b9050919050565b7f4e487b71000000000000000000000000000000000000000000000000000000005f52603260045260245ffd5b5f6132cb826126a3565b91506132d6836126a3565b92508282026132e4816126a3565b91507f800000000000000000000000000000000000000000000000000000000000000084145f8412161561331b5761331a612a94565b5b82820584148315176133305761332f612a94565b5b5092915050565b5f613341826126a3565b915061334c836126a3565b92508261335c5761335b6130de565b5b60015f0383147f80000000000000000000000000000000000000000000000000000000000000008314161561339457613393612a94565b5b828205905092915050565b5f6133a98261237f565b91506133b48361237f565b92508282026133c28161237f565b915082820484148315176133d9576133d8612a94565b5b509291505056fea26469706673582212208eccd3ef3c9a25cfd1f83cbbf145e0d7f2ac4cc11c7130bcdbd2ee99c703a6b964736f6c634300081c0033","linkReferences":{}},"methodIdentifiers":{"BPS_SCALE()":"f8b9f4f0","FEE_BPS()":"bf333f2c","PRICE_DECIMALS()":"f1a640f8","PRICE_SCALE()":"c33f59d3","activeBet(address)":"1c7ff1ba","bets(uint256)":"22af00fa","cashOut(uint256)":"5c7b79f5","currentRound()":"8a19c8bc","endRound(bytes32)":"f70e144b","fund()":"b60d4288","getContractBalance()":"6f9fb98a","getRoundBetIds(uint256)":"eacfe1e2","leaderboard(address)":"d1d33d20","liquidate(uint256,uint256)":"d296d1f1","nextBetId()":"9aca2792","operator()":"570ca735","owner()":"8da5cb5b","placeBet(uint8,uint256)":"dcb3b30e","roundBetIds(uint256,uint256)":"cf2a8eca","rounds(uint256)":"8c65c81f","setOperator(address)":"b3ab15fb","startRound(bytes32)":"37404885","submitTickPrice(uint256,uint256)":"b7c7a5fe","tickPrices(uint256,uint256)":"9aee6ac7","withdraw(uint256)":"2e1a7d4d"},"id":19}